:10000000008000200D010000050100000501000036
:1000100080B51448144B21E05C689968DD688C4217
:100020000CD0002205E0A6180832D6E9008941E983
:1000300002898C460831AA42F5D101E004EB050C97
:100040001C696146002204E008320026002741E9CD
:1000500002670831A242F7D1143301380028DBD1FE
:1000600001F006F9010000007013000048F22013AF
:10007000C1F6FF731A780AB901201870704700BFE3
:1000800048F20810C1F6FF7008B503682BB140F2C2
:100090000003C0F2000303B1984708BD80B500AF6C
:1000A00000F0A0F800F064F900F068FA62B602E02F
:1000B00000BF00E000BF48F22413C1F6FF731B78B5
:1000C000002BF5D048F22413C1F6FF734FF0000265
:1000D0001A7041F2F420C0F2000000F025F94FF050
:1000E00000004FF0000100F05FFA48F22313C1F660
:1000F000FF731B78012BDDD14FF0010000F06EFC87
:10010000D9E700BF80B400AFFEE700BF054B1C7805
:1001100044F001041C70044B1A78D2B2034B1A70DD
:10012000FFF776FFE8460040F8460040BC76004006
:1001300080B582B000AF4EF60C53CEF2000340F211
:100140000042C0F2FA521A604EF61453CEF2000387
:100150004EF61452CEF20002126842F400721A6097
:100160004FF000037B6019E079687B68032B07D8A8
:100170007A6840F20003C0F2000353F8223003E033
:1001800040F20513C0F2000348F20002C1F6FF720C
:1001900042F821307B6803F101037B607B682F2BE1
:1001A000E2D947F2BC63C4F200031B78DAB248F22A
:1001B0002713C1F6FF731A704EF60853CEF20003F0
:1001C00048F20002C1F6FF721A6000F0A3FD48F287
:1001D0000013C1F6FF734FF000021A6007F1080721
:1001E000BD4680BD80B500AF48F22113C1F6FF7354
:1001F0001B78002B08D100F00BF848F22113C1F650
:10020000FF734FF001021A7000F02AF880BD00BFA2
:1002100080B400AF46F28453C4F200034FF0720280
:100220001A7046F28753C4F200034FF020021A708E
:1002300046F22643C4F200034FF007021A7046F25A
:100240003643C4F200034FF048021A7046F2864368
:10025000C4F200034FF000021A70BD4680BC704724
:1002600080B582B000AF00F0F3F80346FB7146F2B0
:100270009453C4F2000346F29452C4F2000212787E
:10028000D2B242F02002D2B21A7046F29753C4F2B0
:10029000000346F29752C4F200021278D2B242F042
:1002A0001002D2B21A7046F29643C4F2000346F22C
:1002B0009642C4F200021278D2B242F01002D2B2D8
:1002C0001A70FB79184600F0C7F807F10807BD4619
:1002D00080BD00BF80B483B000AF46F24753C4F284
:1002E00000031B78FB71FB79184607F10C07BD462C
:1002F00080BC704780B483B000AF0346FB7146F208
:100300006643C4F200031B78DBB203F00403002B46
:10031000F5D146F24743C4F20003FA791A7007F1A7
:100320000C07BD4680BC704780B584B000AF7860D4
:100330004FF00003FB8148F22113C1F6FF731B78D5
:10034000002B11D00AE0FA897B6813441B78184609
:10035000FFF7D0FFFB8903F10103FB81FA897B687A
:1003600013441B78002BEED107F11007BD4680BD6A
:1003700080B500AF00F056F840F29530C0F20000B2
:1003800000F01CF84FF0070000F02CF800F03EF8E9
:1003900080BD00BF80B500AFFFF79CFF03461A4643
:1003A00048F22313C1F6FF731A7048F22413C1F602
:1003B000FF734FF001021A7080BD00BF80B485B09A
:1003C00000AF78604EF60853CEF200031B68FB6066
:1003D000FB6803F140037A681A6007F11407BD4611
:1003E00080BC704780B483B000AF0346FB714EF20F
:1003F0000043CEF20003FA794FEA4212D2B21A70E9
:1004000007F10C07BD4680BC704700BF80B400AF49
:100410004EF20013CEF200034FF001021A60BD4607
:1004200080BC704780B400AF4EF28013CEF2000360
:100430004FF001021A60BD4680BC7047000000000A
:100440000230800803D000BF01380046FCD170475D
:10045000EFF3108072B6704780F31088704700BFCA
:1004600080B582B000AF78600BE048F21813C1F697
:10047000FF731B681846FFF7E3FF7B68A3F5004393
:100480007B607B68B3F5004FEFD848F21013C1F6DC
:10049000FF731B687A6802FB03F31846FFF7D0FF6F
:1004A00007F10807BD4680BD80B582B000AF0346A6
:1004B000FB80FA8848F21413C1F6FF731B7803FB24
:1004C00002F31846FFF7BCFF07F10807BD4680BDE1
:1004D00080B500AF4FF02800FFF7C2FF4FF00300D8
:1004E00000F036FA4FF00500FFF7BAFF4FF00300B7
:1004F00000F02EFA4FF00F00FFF7B2FF4FF00300AD
:1005000000F026FA4FF00100FFF7AAFF4FF00200BB
:1005100000F01EFA4FF00500FFF7A2FF4FF00600B3
:1005200000F0A6F84FF00E0000F0A2F84FF02C00FB
:1005300000F09EF84FF0080000F09AF84FF001002C
:1005400000F096F84FF00C0000F092F84FF0030026
:1005500000F08EF84FF00500FFF782FF80BD00BF6E
:1005600080B500AF4FF00C0000F082F848F2251380
:10057000C1F6FF734FF001021A7080BD80B500AF65
:1005800048F22613C1F6FF731B78002B08D1FFF742
:100590009FFF48F22613C1F6FF734FF001021A7055
:1005A000FFF7DEFF80BD00BF80B582B000AF02461E
:1005B0000B46FA71BB71FB79032B2AD801A252F8C2
:1005C00023F000BFD5050000E5050000F50500009B
:1005D00005060000BB79A3F18003DBB2184600F0EA
:1005E00047F816E0BB79A3F14003DBB2184600F0F0
:1005F0003FF80EE0BB79A3F16C03DBB2184600F0C4
:1006000037F806E0BB79A3F12C03DBB2184600F003
:100610002FF807F10807BD4680BD00BF80B582B046
:1006200000AF0346FB71FB79184600F005F807F1AF
:100630000807BD4680BD00BF80B584B000AF03464B
:10064000FB7100F031F8FB794FEA1313FB73FB7B6E
:10065000184600F027F9FB7903F00F03FB73FB7BCF
:10066000184600F01FF907F11007BD4680BD00BF16
:1006700080B584B000AF0346FB7100F015F8FB793C
:100680004FEA1313FB73FB7B184600F061F9FB790B
:1006900003F00F03FB73FB7B184600F059F907F1D9
:1006A0001007BD4680BD00BF80B582B000AF45F2E7
:1006B0002013C4F2000345F22012C4F200021278A3
:1006C000D2B202F080021A7045F22213C4F2000383
:1006D0001B78DBB223F00F03FB7145F22213C4F247
:1006E0000003FA7942F00F02D2B21A7045F22313D6
:1006F000C4F200031B78DBB223F00F03FB7145F259
:100700002313C4F20003FA791A7045F22413C4F2D9
:1007100000031B78DBB223F00F03FB7145F22413B7
:10072000C4F20003FA791A7045F22013C4F20003F0
:1007300045F22012C4F200021278D2B202F0DF02B7
:100740001A7045F22013C4F2000345F22012C4F2DD
:1007500000021278D2B242F04002D2B21A704FF0C8
:100760000000FFF7A1FE45F22013C4F2000345F29A
:100770002012C4F200021278D2B242F01002D2B2B9
:100780001A704FF00100FFF78FFE45F22113C4F2FB
:1007900000031B78FB7145F22013C4F2000345F2FD
:1007A0002012C4F200021278D2B202F0EF021A70E4
:1007B0004FF00000FFF778FEFB7903F00803FB71B0
:1007C00045F22013C4F2000345F22012C4F20002E5
:1007D0001278D2B242F01002D2B21A704FF0010079
:1007E000FFF762FE45F22013C4F2000345F2201227
:1007F000C4F200021278D2B202F0EF021A70FB7952
:10080000002BACD145F22013C4F2000345F22012B4
:10081000C4F200021278D2B202F0BF021A7045F29E
:100820002013C4F2000345F22012C4F20002127831
:10083000D2B202F080021A7045F22213C4F2000311
:1008400045F22212C4F200021278D2B202F0F00293
:100850001A7045F22313C4F200031B78DBB223F0B5
:100860000F03FB7145F22313C4F20003FA7942F03F
:100870000F02D2B21A7045F22413C4F200031B789F
:10088000DBB223F00F03FB7145F22413C4F2000323
:10089000FA7942F00F02D2B21A7007F10807BD468A
:1008A00080BD00BF80B582B000AF0346FB71FFF78B
:1008B000FBFE45F22013C4F2000345F22012C4F2FD
:1008C00000021278D2B242F02002D2B21A7045F27F
:1008D0002013C4F2000345F22012C4F20002127881
:1008E000D2B202F0BF021A7045F22013C4F2000324
:1008F00045F22012C4F200021278D2B202F0F002E5
:100900001A7045F22013C4F2000345F22012C4F21B
:1009100000021278D1B2FA7941EA0202D2B242F070
:100920001002D2B21A704FF00100FFF7BDFD45F280
:100930002013C4F2000345F22012C4F20002127820
:10094000D2B202F0EF021A7007F10807BD4680BD6F
:1009500080B582B000AF0346FB7145F22013C4F2AC
:10096000000345F22012C4F200021278D2B202F063
:100970009F021A7045F22013C4F2000345F22012C0
:10098000C4F200021278D2B202F0F0021A7045F2FC
:100990002013C4F2000345F22012C4F200021278C0
:1009A000D1B2FA7941EA0202D2B242F01002D2B2D6
:1009B0001A704FF00100FFF777FD45F22013C4F2E3
:1009C000000345F22012C4F200021278D2B202F003
:1009D000EF021A7007F10807BD4680BD80B582B0EE
:1009E00000AF0346FB71FB794FEA1313DBB21A46E3
:1009F00041F2F823C0F200039B5C1846FFF70EFE9D
:100A0000FB7903F00F0241F2F823C0F200039B5C74
:100A10001846FFF703FE07F10807BD4680BD00BF7B
:100A200080B485B000AF786039607B68BB604FF000
:100A30000003FB6009E0BA68FB6813444FF0000252
:100A40001A70FB6803F10103FB60FA683B689A4285
:100A5000F1D307F11407BD4680BC704780B489B05C
:100A600000AFF860B9607A60FB687B61BB68BB610E
:100A70004FF00003FB610BE07A69FB691344B9692D
:100A8000FA690A4412781A70FB6903F10103FB61E9
:100A9000FA697B689A42EFD307F12407BD4680BC10
:100AA000704700BF80B582B000AF78603960786869
:100AB0004FF000013A6800F071FB07F10807BD46EE
:100AC00080BD00BF80B584B000AFF860B9607A60C7
:100AD000F868B9687A6800F099FA07F11007BD461E
:100AE00080BD00BF80B487B000AF786039604FF040
:100AF0000003FB604FF00003BB602CE0BB684FEAD3
:100B000083027B6813441B683B613B69FB753B694F
:100B100023F0FF033B6117E0FB684FEA43023B68A9
:100B200013441B781A463B691344FA684FEA4201A2
:100B30003A680A4452781A70FB6803F10103FB60BB
:100B4000FB7D03F1FF33FB75FB7D002BE4D1BB681C
:100B500003F10103BB60BB68112BCFD907F11C0760
:100B6000BD4680BC704700BF80B500AF44F2800333
:100B7000C4F200034FF04D021A8044F28203C4F223
:100B800000034FF018021A7044F20033C4F200035D
:100B90004FF002021A7044F20003C4F200034FF057
:100BA00008021A7044F20023C4F200034FF003025B
:100BB0001A7044F2A163C4F2000340F20812C4F6B2
:100BC00000121278D2B21A7044F22223C4F2000347
:100BD0004FF008021A8044F22023C4F2000341F2CD
:100BE00051021A8040F6B830FFF72AFC44F20403A1
:100BF000C4F200034FF003021A7044F20503C4F27A
:100C000000034FF001021A7044F20403C4F200031F
:100C10004FF000021A7044F20403C4F200034FF0D4
:100C200007021A7044F20603C4F200034FF00002F8
:100C30001A7044F20803C4F200034FF048021A701D
:100C400044F20403C4F200034FF000021A7044F2AD
:100C50000103C4F200034FF002021A7044F2A233FF
:100C6000C4F2000344F2A232C4F200021278D2B2FB
:100C700042F00102D2B21A7080BD00BF80B400AF52
:100C800044F2AA33C4F200034FF444721A8045F6CA
:100C90002003C4F200034FF01E021A7045F624032D
:100CA000C4F200034FF01E021A7045F62803C4F286
:100CB00000034FF01E021A7045F62C03C4F2000325
:100CC0004FF01E021A7045F60013C4F200036FF0D5
:100CD0003F021A7045F60313C4F200034FF00C02F2
:100CE0001A7045F60813C4F200036FF03F021A7041
:100CF00045F60B13C4F200034FF00C021A7045F6D0
:100D00007603C4F200034FF044021A70BD4680BC63
:100D1000704700BF80B586B000AF72B644F60003DE
:100D2000C4F200034FF000021A70FFF71DFF44F6F3
:100D30000003C4F200036FF07F021A7047F2100341
:100D4000C4F200034FF000021A7047F22003C4F20D
:100D500000034FF000021A7045F67C03C4F2000352
:100D60004FF001021A7044F2E863C4F2000344F247
:100D7000E862C4F200021278D2B242F00102D2B2AA
:100D80001A704FF00003FB702FE0FA7813464FEA19
:100D9000430313444FEA43031A4641F20833C0F2B7
:100DA000000313447B607B681A7859784FEA01216D
:100DB00041EA020299784FEA014141EA0202DB78F6
:100DC0004FEA036343EA02031A467B6819795B79A9
:100DD0004FEA032343EA01039BB210461946FFF78B
:100DE00061FEFB7803F10103FB70FB78082BCCD983
:100DF0004FF00003FB7043E0FA7813464FEA830399
:100E000013444FEA43031A4641F24033C0F2000351
:100E10001344BB60BB681A7859784FEA012141EA54
:100E2000020299784FEA014141EA0202DB784FEA77
:100E3000036343EA0203FB60BB681A7959794FEAFE
:100E4000012141EA020299794FEA014141EA020295
:100E5000DB794FEA036343EA02033B61BB681A7A1A
:100E60005B7A4FEA032343EA0203FB82FB8AF868BA
:100E700039691A46FFF726FEFB7803F10103FB7080
:100E8000FB78002BB8D04FF0904040F24801C4F6F8
:100E90000001FFF727FE45F20020C4F200004FF0EA
:100EA0000701FFF7BDFD45F20820C4F2000040F243
:100EB000E831C4F600014FF00702FFF7CFFD45F21D
:100EC0001020C4F200004FF00701FFF7A9FD45F222
:100ED0001820C4F200004FF00701FFF7A1FD45F212
:100EE0002020C4F200004FF00701FFF799FD45F202
:100EF0002820C4F200004FF00701FFF791FD45F2F2
:100F00003020C4F200004FF00701FFF789FD45F2E1
:100F10006020C4F200004FF00601FFF781FD45F2AA
:100F20007820C4F200004FF00701FFF779FD45F289
:100F30000303C4F2010345F20302C4F20102127872
:100F4000D2B242F00202D2B21A7045F21303C4F2D6
:100F5000010345F21302C4F201021278D2B242F048
:100F60000202D2B21A7044F2A033C4F2000344F277
:100F7000A032C4F200021278D2B242F04002D2B2E1
:100F80001A7044F2C233C4F2000344F2C232C4F213
:100F900000021278D2B242F01002D2B21A7045F2B8
:100FA0001010C4F2000040F2D431C4F600014FF03A
:100FB0000A02FFF787FD45F22210C4F2000040F25A
:100FC000E031C4F600014FF00802FFF77BFDFFF7A8
:100FD00055FE44F2B030C4F2000044F2A031C4F235
:100FE00000014FF00C02FFF76DFD44F2B033C4F284
:100FF000000344F2B032C4F200021278D2B202F01E
:10100000FD021A7007F11807BD4680BD032A2DE9BD
:10101000F0070BD83AB1002311F803C000F803C061
:1010200001339342F8D1BDE8F007704782180C46AF
:10103000034603E014F8011C03F8011C03F0030647
:101040001946A44601330134002EF3D11CF00304E9
:10105000634608BFC1EB020C68D06542C4F1040AC4
:101060000CEB050733464FEACA0A5CF805604FEA05
:10107000C408551A08E057F8044F264604FA0AF443
:1010800049EA0404CC5004335C18032D26FA08F90D
:10109000A5F104050CEB0306EDDC002302E0F15C96
:1010A000E154013319199142F9D3BCE753F8404C8C
:1010B00041F8404C53F83C4C41F83C4C53F8384C08
:1010C00041F8384C53F8344C41F8344C53F8304C18
:1010D00041F8304C53F82C4C41F82C4C53F8284C28
:1010E00041F8284C53F8244C41F8244C53F8204C38
:1010F00041F8204C53F81C4C41F81C4C53F8184C48
:1011000041F8184C53F8144C41F8144C53F8104C57
:1011100041F8104C53F80C4C41F80C4C53F8084C67
:1011200041F8084C53F8044C41F8044C1C460D4659
:1011300040334031BCF13F0FACF1400CB6DC2146EE
:101140002B46541B0FE051F8105C43F8105C51F82B
:101150000C5C43F80C5C51F8085C43F8085C51F8EF
:10116000045C43F8045C0F2C0D469C4601F1100111
:1011700003F11003A4F11004E5DCCCEB0201002321
:1011800003E0EC584CF8034004335E19032903EBE9
:101190000C04A1F10401F4DC7FE700BF032AC9B20B
:1011A00030B407D822B10023C15401339342FBD19C
:1011B00030BC704700EB020C034601E003F8011C51
:1011C00003F003041A460133002CF7D14FF001332A
:1011D000C2EB0C0403FB01F31FE042F8403C42F871
:1011E0003C3C42F8383C42F8343C42F8303C42F84F
:1011F0002C3C42F8283C42F8243C42F8203C42F87F
:101200001C3C42F8183C42F8143C42F8103C42F8AE
:101210000C3C42F8083C42F8043C154640323F2C56
:10122000A4F14004D9DC2A46C5EB0C0407E042F8DF
:10123000103C42F80C3C42F8083C42F8043C15468D
:1012400010320F2CA4F11004F1DC2A46C5EB0C057A
:1012500001E042F8043C14460432032DA5F10405D4
:10126000F7DC01E004F8011B6445FBD3A0E700BFF5
:1012700008B500F017F8074800B10068064901B149
:1012800009680022FEF70AFF044B0BB1AFF30080A0
:10129000FEE700BF000000000000000000000000AA
:1012A000FEE7000070B541F2583641F25835C0F201
:1012B0000006C0F20005761BB61006D0002455F8D3
:1012C000243001349847A642F9D841F2583541F20A
:1012D0006036C0F20005C0F20006761B00F036F85A
:1012E000B61006D0002455F8243001349847A642A1
:0412F000F9D870BDFC
:1012F40061000000303132333435363738394142F9
:101304004344454600510040100030510040400025
:10131400C05100401000F051004010000000014096
:101324000010001401408002001701400005004035
:101334000140000A004C01400002000080160140F8
:101344005403004880000000F8B500BFF8BC08BC96
:101354009E4670478100000031010000F8B500BFCF
:10136400F8BC08BC9E4670476D00000000000000F9
:10137400881300000881FF1F180000000800000007
:041384000000000065
:101388000000000000366E01C05D0000180000007B
:081398000000E02E000000003F
:040000030000010DEB
:00000001FF
