:1000000000800020AD000000A5000000A500000059
:1000100080B51448144B21E05C689968DD688C4217
:100020000CD0002205E0A6180832D6E9008941E983
:1000300002898C460831AA42F5D101E004EB050C97
:100040001C696146002204E008320026002741E9CD
:1000500002670831A242F7D1143301380028DBD1FE
:1000600000F0BCFC01000000C80A000048F21013B8
:10007000C1F6FF731A780AB901201870704700BFE3
:1000800048F20810C1F6FF7008B503682BB140F2C2
:100090000003C0F2000303B1984708BD80B400AF6D
:1000A000FEE700BF80B400AFFEE700BF054B1C7841
:1000B00044F001041C70044B1A78D2B2034B1A703E
:1000C000FFF7A6FFE8460040F8460040BC76004037
:1000D00080B582B000AF4EF60C53CEF2000340F272
:1000E0000042C0F2FA521A604EF61453CEF20003E8
:1000F0004EF61452CEF20002126842F400721A60F8
:100100004FF000037B6019E079687B68032B07D808
:100110007A6840F20003C0F2000353F8223003E093
:1001200040F2A503C0F2000348F20002C1F6FF72DC
:1001300042F821307B6803F101037B607B682F2B41
:10014000E2D947F2BC63C4F200031B78DAB248F28A
:100150001113C1F6FF731A704EF60853CEF2000366
:1001600048F20002C1F6FF721A6000F085F948F209
:100170000013C1F6FF734FF000021A6007F1080781
:10018000BD4680BD80B485B000AF786039607B68C3
:10019000BB604FF00003FB6009E0BA68FB681344E2
:1001A0004FF000021A70FB6803F10103FB60FA686C
:1001B0003B689A42F1D307F11407BD4680BC7047F3
:1001C00080B489B000AFF860B9607A60FB687B6189
:1001D000BB68BB614FF00003FB610BE07A69FB6910
:1001E0001344B969FA690A4412781A70FB6903F179
:1001F0000103FB61FA697B689A42EFD307F1240798
:10020000BD4680BC704700BF80B582B000AF78604B
:10021000396078684FF000013A6800F075FB07F12B
:100220000807BD4680BD00BF80B584B000AFF86050
:10023000B9607A60F868B9687A6800F09DFA07F1E9
:100240001007BD4680BD00BF80B487B000AF7860A6
:1002500039604FF00003FB604FF00003BB602CE0FF
:10026000BB684FEA83027B6813441B683B613B69B0
:10027000FB753B6923F0FF033B6117E0FB684FEA26
:1002800043023B6813441B781A463B691344FA68DF
:100290004FEA42013A680A4452781A70FB6803F147
:1002A0000103FB60FB7D03F1FF33FB75FB7D002B3E
:1002B000E4D1BB6803F10103BB60BB680F2BCFD94E
:1002C00007F11C07BD4680BC704700BF80B500AF7A
:1002D00044F28003C4F200034FF033021A8044F268
:1002E0008203C4F200034FF018021A7044F2003384
:1002F000C4F200034FF002021A7044F20003C4F289
:1003000000034FF008021A7044F20023C4F2000305
:100310004FF003021A7044F2A163C4F2000340F2EA
:100320000812C4F600121278D2B21A7044F22223D4
:10033000C4F200034FF008021A8044F22023C4F2F2
:10034000000341F251021A8040F6B83000F004FA7E
:1003500044F20403C4F200034FF003021A7044F2A3
:100360000503C4F200034FF001021A7044F20403C3
:10037000C4F200034FF000021A7044F20403C4F206
:1003800000034FF007021A7044F20603C4F20003A0
:100390004FF000021A7044F20803C4F200034FF059
:1003A00048021A7044F20403C4F200034FF0000242
:1003B0001A7044F20103C4F200034FF002021A70F3
:1003C00044F2A233C4F2000344F2A232C4F20002A7
:1003D0001278D2B242F00102D2B21A7080BD00BFD0
:1003E00080B400AF44F2AA33C4F200034FF4447265
:1003F0001A8045F62003C4F200034FF01E021A7063
:1004000045F62403C4F200034FF01E021A7045F6AD
:100410002803C4F200034FF01E021A7045F62C03A5
:10042000C4F200034FF01E021A7045F60013C4F226
:1004300000036FF03F021A7045F60313C4F2000385
:100440004FF00C021A7045F60813C4F200036FF067
:100450003F021A7045F60B13C4F200034FF00C0272
:100460001A7045F67603C4F200034FF044021A7086
:10047000BD4680BC704700BF80B586B000AF72B685
:1004800044F60003C4F200034FF000021A70FFF7B5
:100490001DFF44F60003C4F200036FF07F021A70E0
:1004A00047F21003C4F200034FF000021A7047F243
:1004B0002003C4F200034FF000021A7045F67C03DB
:1004C000C4F200034FF001021A7044F2E863C4F270
:1004D000000344F2E862C4F200021278D2B242F0A1
:1004E0000102D2B21A704FF00003FB702FE0FA78CD
:1004F00013464FEA430313444FEA43031A4640F6B8
:100500006023C0F2000313447B607B681A7859783B
:100510004FEA012141EA020299784FEA014141EA9A
:100520000202DB784FEA036343EA02031A467B6860
:1005300019795B794FEA032343EA01039BB2104622
:100540001946FFF761FEFB7803F10103FB70FB78AE
:10055000082BCCD94FF00003FB7043E0FA78134628
:100560004FEA830313444FEA43031A4640F69823A5
:10057000C0F200031344BB60BB681A7859784FEA95
:10058000012141EA020299784FEA014141EA02025F
:10059000DB784FEA036343EA0203FB60BB681A7926
:1005A00059794FEA012141EA020299794FEA014162
:1005B00041EA0202DB794FEA036343EA02033B614B
:1005C000BB681A7A5B7A4FEA032343EA0203FB8291
:1005D000FB8AF86839691A46FFF726FEFB7803F1B3
:1005E0000103FB70FB78002BB8D04FF0904040F235
:1005F0004001C4F60001FFF727FE45F20020C4F2D7
:1006000000004FF00701FFF7BDFD45F20820C4F2DE
:1006100000004FF00701FFF7B5FD45F21020C4F2CE
:1006200000004FF00701FFF7ADFD45F21820C4F2BE
:1006300000004FF00701FFF7A5FD45F22020C4F2AE
:10064000000040F2A831C4F600014FF00702FFF7A6
:10065000B7FD45F22820C4F200004FF00701FFF774
:1006600091FD45F23020C4F200004FF00701FFF782
:1006700089FD45F26020C4F200004FF00601FFF74B
:1006800081FD45F27820C4F200004FF00701FFF72A
:1006900079FD45F20303C4F2010345F20302C4F2FB
:1006A00001021278D2B242F00202D2B21A7045F2BE
:1006B0001303C4F2010345F21302C4F201021278DB
:1006C000D2B242F00202D2B21A7044F2A033C4F2A3
:1006D000000344F2A032C4F200021278D2B242F017
:1006E0004002D2B21A7044F2C233C4F2000344F2A0
:1006F000C232C4F200021278D2B242F01002D2B278
:100700001A7045F24010C4F2000040F29C31C4F669
:1007100000014FF00A02FFF787FDFFF761FE44F288
:10072000B030C4F2000044F2A031C4F200014FF036
:100730000C02FFF779FD44F2B033C4F2000344F237
:10074000B032C4F200021278D2B202F0FD021A7086
:1007500007F11807BD4680BD0230800803D000BFF6
:1007600001380046FCD17047EFF3108072B6704735
:1007700080F31088704700BF032A2DE9F0070BD8DB
:100780003AB1002311F803C000F803C001339342CB
:10079000F8D1BDE8F007704782180C46034603E025
:1007A00014F8011C03F8011C03F003061946A446C3
:1007B00001330134002EF3D11CF00304634608BF5B
:1007C000C1EB020C68D06542C4F1040A0CEB0507CA
:1007D00033464FEACA0A5CF805604FEAC408551A66
:1007E00008E057F8044F264604FA0AF449EA0404DC
:1007F000CC5004335C18032D26FA08F9A5F1040542
:100800000CEB0306EDDC002302E0F15CE154013364
:1008100019199142F9D3BCE753F8404C41F8404CC8
:1008200053F83C4C41F83C4C53F8384C41F8384CA8
:1008300053F8344C41F8344C53F8304C41F8304CB8
:1008400053F82C4C41F82C4C53F8284C41F8284CC8
:1008500053F8244C41F8244C53F8204C41F8204CD8
:1008600053F81C4C41F81C4C53F8184C41F8184CE8
:1008700053F8144C41F8144C53F8104C41F8104CF8
:1008800053F80C4C41F80C4C53F8084C41F8084C08
:1008900053F8044C41F8044C1C460D46403340319B
:1008A000BCF13F0FACF1400CB6DC21462B46541B8B
:1008B0000FE051F8105C43F8105C51F80C5C43F801
:1008C0000C5C51F8085C43F8085C51F8045C43F890
:1008D000045C0F2C0D469C4601F1100103F110033E
:1008E000A4F11004E5DCCCEB0201002303E0EC589A
:1008F0004CF8034004335E19032903EB0C04A1F107
:100900000401F4DC7FE700BF032AC9B230B407D882
:1009100022B10023C15401339342FBD130BC704754
:1009200000EB020C034601E003F8011C03F0030492
:100930001A460133002CF7D14FF00133C2EB0C04FF
:1009400003FB01F31FE042F8403C42F83C3C42F814
:10095000383C42F8343C42F8303C42F82C3C42F8F7
:10096000283C42F8243C42F8203C42F81C3C42F827
:10097000183C42F8143C42F8103C42F80C3C42F857
:10098000083C42F8043C154640323F2CA4F1400498
:10099000D9DC2A46C5EB0C0407E042F8103C42F8CB
:1009A0000C3C42F8083C42F8043C154610320F2C2F
:1009B000A4F11004F1DC2A46C5EB0C0501E042F875
:1009C000043C14460432032DA5F10405F7DC01E0D4
:1009D00004F8011B6445FBD3A0E700BF08B500F095
:1009E00017F8074800B10068064901B109680022FC
:1009F000FFF754FB044B0BB1AFF30080FEE700BFE1
:100A0000000000000000000000000000FEE7000001
:100A100070B540F6B02640F6B025C0F20006C0F230
:100A20000005761BB61006D0002455F8243001349A
:100A30009847A642F9D840F6B02540F6B826C0F24D
:100A40000005C0F20006761B00F02CF8B61006D0A8
:100A5000002455F8243001349847A642F9D870BDD7
:100A6000005100404000505100402000C051004063
:100A70001000F0510040100000000140800C000DFB
:100A80000140000300140140000800400140000A3A
:100A9000004C014000020000800C01401C03004893
:100AA00080000000F8B500BFF8BC08BC9E46704747
:100AB00081000000D1000000F8B500BFF8BC08BC00
:100AC0009E4670476D00000000000000E00A000034
:100AD0000881FF1F0800000008000000000000005F
:080AE00000000000000000000E
:04000003000000AD4C
:00000001FF
